{"contracts/11forWhile.sol":{"Loop":{"abi":[{"inputs":[],"name":"loop","outputs":[],"stateMutability":"nonpayable","type":"function"}],"evm":{"bytecode":{"linkReferences":{},"object":"608060405234801561001057600080fd5b50610116806100206000396000f3fe6080604052348015600f57600080fd5b506004361060285760003560e01c8063a92100cb14602d575b600080fd5b60336035565b005b60005b600a811015606157600381031560515760088103156061575b8080605a90609d565b9150506038565b50565b7f4e487b7100000000000000000000000000000000000000000000000000000000600052601160045260246000fd5b6000819050919050565b600060a6826093565b91507fffffffffffffffffffffffffffffffffffffffffffffffffffffffffffffffff820360d55760d46064565b5b60018201905091905056fea2646970667358221220676ba54c3b2e049ee0d38052da1fc876439c515313508518b439a77f8bfc299f64736f6c63430008110033","opcodes":"PUSH1 0x80 PUSH1 0x40 MSTORE CALLVALUE DUP1 ISZERO PUSH2 0x10 JUMPI PUSH1 0x0 DUP1 REVERT JUMPDEST POP PUSH2 0x116 DUP1 PUSH2 0x20 PUSH1 0x0 CODECOPY PUSH1 0x0 RETURN INVALID PUSH1 0x80 PUSH1 0x40 MSTORE CALLVALUE DUP1 ISZERO PUSH1 0xF JUMPI PUSH1 0x0 DUP1 REVERT JUMPDEST POP PUSH1 0x4 CALLDATASIZE LT PUSH1 0x28 JUMPI PUSH1 0x0 CALLDATALOAD PUSH1 0xE0 SHR DUP1 PUSH4 0xA92100CB EQ PUSH1 0x2D JUMPI JUMPDEST PUSH1 0x0 DUP1 REVERT JUMPDEST PUSH1 0x33 PUSH1 0x35 JUMP JUMPDEST STOP JUMPDEST PUSH1 0x0 JUMPDEST PUSH1 0xA DUP2 LT ISZERO PUSH1 0x61 JUMPI PUSH1 0x3 DUP2 SUB ISZERO PUSH1 0x51 JUMPI PUSH1 0x8 DUP2 SUB ISZERO PUSH1 0x61 JUMPI JUMPDEST DUP1 DUP1 PUSH1 0x5A SWAP1 PUSH1 0x9D JUMP JUMPDEST SWAP2 POP POP PUSH1 0x38 JUMP JUMPDEST POP JUMP JUMPDEST PUSH32 0x4E487B7100000000000000000000000000000000000000000000000000000000 PUSH1 0x0 MSTORE PUSH1 0x11 PUSH1 0x4 MSTORE PUSH1 0x24 PUSH1 0x0 REVERT JUMPDEST PUSH1 0x0 DUP2 SWAP1 POP SWAP2 SWAP1 POP JUMP JUMPDEST PUSH1 0x0 PUSH1 0xA6 DUP3 PUSH1 0x93 JUMP JUMPDEST SWAP2 POP PUSH32 0xFFFFFFFFFFFFFFFFFFFFFFFFFFFFFFFFFFFFFFFFFFFFFFFFFFFFFFFFFFFFFFFF DUP3 SUB PUSH1 0xD5 JUMPI PUSH1 0xD4 PUSH1 0x64 JUMP JUMPDEST JUMPDEST PUSH1 0x1 DUP3 ADD SWAP1 POP SWAP2 SWAP1 POP JUMP INVALID LOG2 PUSH5 0x6970667358 0x22 SLT KECCAK256 PUSH8 0x6BA54C3B2E049EE0 0xD3 DUP1 MSTORE 0xDA 0x1F 0xC8 PUSH23 0x439C515313508518B439A77F8BFC299F64736F6C634300 ADDMOD GT STOP CALLER "},"methodIdentifiers":{"loop()":"a92100cb"}}}}}