{
  "_format": "hh-sol-artifact-1",
  "contractName": "Primitives",
  "sourceName": "contracts/03Primitives.sol",
  "abi": [
    {
      "inputs": [],
      "name": "addr",
      "outputs": [
        {
          "internalType": "address",
          "name": "",
          "type": "address"
        }
      ],
      "stateMutability": "view",
      "type": "function"
    },
    {
      "inputs": [],
      "name": "boo",
      "outputs": [
        {
          "internalType": "bool",
          "name": "",
          "type": "bool"
        }
      ],
      "stateMutability": "view",
      "type": "function"
    },
    {
      "inputs": [],
      "name": "in16",
      "outputs": [
        {
          "internalType": "int16",
          "name": "",
          "type": "int16"
        }
      ],
      "stateMutability": "view",
      "type": "function"
    },
    {
      "inputs": [],
      "name": "in8",
      "outputs": [
        {
          "internalType": "int8",
          "name": "",
          "type": "int8"
        }
      ],
      "stateMutability": "view",
      "type": "function"
    },
    {
      "inputs": [],
      "name": "ip16",
      "outputs": [
        {
          "internalType": "int16",
          "name": "",
          "type": "int16"
        }
      ],
      "stateMutability": "view",
      "type": "function"
    },
    {
      "inputs": [],
      "name": "ip8",
      "outputs": [
        {
          "internalType": "int8",
          "name": "",
          "type": "int8"
        }
      ],
      "stateMutability": "view",
      "type": "function"
    },
    {
      "inputs": [],
      "name": "max_u128",
      "outputs": [
        {
          "internalType": "uint128",
          "name": "",
          "type": "uint128"
        }
      ],
      "stateMutability": "view",
      "type": "function"
    },
    {
      "inputs": [],
      "name": "max_u16",
      "outputs": [
        {
          "internalType": "uint16",
          "name": "",
          "type": "uint16"
        }
      ],
      "stateMutability": "view",
      "type": "function"
    },
    {
      "inputs": [],
      "name": "max_u256",
      "outputs": [
        {
          "internalType": "uint256",
          "name": "",
          "type": "uint256"
        }
      ],
      "stateMutability": "view",
      "type": "function"
    },
    {
      "inputs": [],
      "name": "max_u32",
      "outputs": [
        {
          "internalType": "uint32",
          "name": "",
          "type": "uint32"
        }
      ],
      "stateMutability": "view",
      "type": "function"
    },
    {
      "inputs": [],
      "name": "max_u64",
      "outputs": [
        {
          "internalType": "uint64",
          "name": "",
          "type": "uint64"
        }
      ],
      "stateMutability": "view",
      "type": "function"
    },
    {
      "inputs": [],
      "name": "max_u8",
      "outputs": [
        {
          "internalType": "uint8",
          "name": "",
          "type": "uint8"
        }
      ],
      "stateMutability": "view",
      "type": "function"
    }
  ],
  "bytecode": "0x608060405260016000806101000a81548160ff02191690831515021790555060ff600060016101000a81548160ff021916908360ff16021790555061ffff600060026101000a81548161ffff021916908361ffff16021790555063ffffffff600060046101000a81548163ffffffff021916908363ffffffff16021790555067ffffffffffffffff600060086101000a81548167ffffffffffffffff021916908367ffffffffffffffff1602179055506fffffffffffffffffffffffffffffffff600060106101000a8154816fffffffffffffffffffffffffffffffff02191690836fffffffffffffffffffffffffffffffff1602179055507fffffffffffffffffffffffffffffffffffffffffffffffffffffffffffffff80600260006101000a81548160ff021916908360000b60ff160217905550607f600260016101000a81548160ff021916908360000b60ff1602179055507fffffffffffffffffffffffffffffffffffffffffffffffffffffffffffff80006002806101000a81548161ffff021916908360010b61ffff160217905550617fff600260046101000a81548161ffff021916908360010b61ffff16021790555073ca35b7d915458ef540ade6068dfe2f44e8fa733c600260066101000a81548173ffffffffffffffffffffffffffffffffffffffff021916908373ffffffffffffffffffffffffffffffffffffffff16021790555034801561021757600080fd5b506105b8806102276000396000f3fe608060405234801561001057600080fd5b50600436106100b45760003560e01c806378622f3b1161007157806378622f3b1461016d5780639f093ce91461018b578063b95963c0146101a9578063db867293146101c7578063dbb310f4146101e5578063fe6b482014610203576100b4565b80630235f0ed146100b9578063097e48eb146100d75780630a562a56146100f55780630c28b978146101135780634b3df20014610131578063767800de1461014f575b600080fd5b6100c1610221565b6040516100ce919061033d565b60405180910390f35b6100df610234565b6040516100ec9190610374565b60405180910390f35b6100fd610245565b60405161010a91906103ac565b60405180910390f35b61011b610259565b60405161012891906103e0565b60405180910390f35b61013961025f565b6040516101469190610416565b60405180910390f35b610157610270565b6040516101649190610472565b60405180910390f35b610175610296565b60405161018291906104b8565b60405180910390f35b6101936102b8565b6040516101a091906104ef565b60405180910390f35b6101b16102cb565b6040516101be9190610529565b60405180910390f35b6101cf6102e1565b6040516101dc91906104ef565b60405180910390f35b6101ed6102f4565b6040516101fa9190610567565b60405180910390f35b61020b61030e565b6040516102189190610374565b60405180910390f35b600060019054906101000a900460ff1681565b60028054906101000a900460010b81565b600060029054906101000a900461ffff1681565b60015481565b60008054906101000a900460ff1681565b600260069054906101000a900473ffffffffffffffffffffffffffffffffffffffff1681565b600060109054906101000a90046fffffffffffffffffffffffffffffffff1681565b600260019054906101000a900460000b81565b600060049054906101000a900463ffffffff1681565b600260009054906101000a900460000b81565b600060089054906101000a900467ffffffffffffffff1681565b600260049054906101000a900460010b81565b600060ff82169050919050565b61033781610321565b82525050565b6000602082019050610352600083018461032e565b92915050565b60008160010b9050919050565b61036e81610358565b82525050565b60006020820190506103896000830184610365565b92915050565b600061ffff82169050919050565b6103a68161038f565b82525050565b60006020820190506103c1600083018461039d565b92915050565b6000819050919050565b6103da816103c7565b82525050565b60006020820190506103f560008301846103d1565b92915050565b60008115159050919050565b610410816103fb565b82525050565b600060208201905061042b6000830184610407565b92915050565b600073ffffffffffffffffffffffffffffffffffffffff82169050919050565b600061045c82610431565b9050919050565b61046c81610451565b82525050565b60006020820190506104876000830184610463565b92915050565b60006fffffffffffffffffffffffffffffffff82169050919050565b6104b28161048d565b82525050565b60006020820190506104cd60008301846104a9565b92915050565b60008160000b9050919050565b6104e9816104d3565b82525050565b600060208201905061050460008301846104e0565b92915050565b600063ffffffff82169050919050565b6105238161050a565b82525050565b600060208201905061053e600083018461051a565b92915050565b600067ffffffffffffffff82169050919050565b61056181610544565b82525050565b600060208201905061057c6000830184610558565b9291505056fea2646970667358221220fb59119c52cd66a7cc944adbba95b98fe49f3aea933ab6432fb29c8733234f7664736f6c63430008110033",
  "linkReferences": {},
  "deployedLinkReferences": {}
}