{
  "_format": "hh-sol-artifact-1",
  "contractName": "MultiSigWallet",
  "sourceName": "contracts/MultiSigWallet.sol",
  "abi": [
    {
      "inputs": [
        {
          "internalType": "address[]",
          "name": "_owners",
          "type": "address[]"
        },
        {
          "internalType": "uint256",
          "name": "_numConfirmationsRequired",
          "type": "uint256"
        }
      ],
      "stateMutability": "nonpayable",
      "type": "constructor"
    },
    {
      "inputs": [
        {
          "internalType": "uint256",
          "name": "_txIndex",
          "type": "uint256"
        }
      ],
      "name": "confirmTransaction",
      "outputs": [],
      "stateMutability": "nonpayable",
      "type": "function"
    },
    {
      "inputs": [
        {
          "internalType": "uint256",
          "name": "_txIndex",
          "type": "uint256"
        }
      ],
      "name": "executeTx",
      "outputs": [],
      "stateMutability": "nonpayable",
      "type": "function"
    },
    {
      "inputs": [],
      "name": "getOwners",
      "outputs": [
        {
          "internalType": "address[]",
          "name": "",
          "type": "address[]"
        }
      ],
      "stateMutability": "view",
      "type": "function"
    },
    {
      "inputs": [],
      "name": "getTransactionCount",
      "outputs": [
        {
          "internalType": "uint256",
          "name": "",
          "type": "uint256"
        }
      ],
      "stateMutability": "view",
      "type": "function"
    },
    {
      "inputs": [
        {
          "internalType": "uint256",
          "name": "",
          "type": "uint256"
        },
        {
          "internalType": "address",
          "name": "",
          "type": "address"
        }
      ],
      "name": "isConfirmed",
      "outputs": [
        {
          "internalType": "bool",
          "name": "",
          "type": "bool"
        }
      ],
      "stateMutability": "view",
      "type": "function"
    },
    {
      "inputs": [
        {
          "internalType": "address",
          "name": "",
          "type": "address"
        }
      ],
      "name": "isOwner",
      "outputs": [
        {
          "internalType": "bool",
          "name": "",
          "type": "bool"
        }
      ],
      "stateMutability": "view",
      "type": "function"
    },
    {
      "inputs": [],
      "name": "numConfirmationRequired",
      "outputs": [
        {
          "internalType": "uint256",
          "name": "",
          "type": "uint256"
        }
      ],
      "stateMutability": "view",
      "type": "function"
    },
    {
      "inputs": [
        {
          "internalType": "uint256",
          "name": "",
          "type": "uint256"
        }
      ],
      "name": "owners",
      "outputs": [
        {
          "internalType": "address",
          "name": "",
          "type": "address"
        }
      ],
      "stateMutability": "view",
      "type": "function"
    },
    {
      "inputs": [
        {
          "internalType": "uint256",
          "name": "_txIndex",
          "type": "uint256"
        }
      ],
      "name": "revokeTransaction",
      "outputs": [],
      "stateMutability": "nonpayable",
      "type": "function"
    },
    {
      "inputs": [
        {
          "internalType": "address",
          "name": "_to",
          "type": "address"
        },
        {
          "internalType": "uint256",
          "name": "_value",
          "type": "uint256"
        },
        {
          "internalType": "bytes",
          "name": "_data",
          "type": "bytes"
        }
      ],
      "name": "submitTransaction",
      "outputs": [],
      "stateMutability": "nonpayable",
      "type": "function"
    },
    {
      "inputs": [
        {
          "internalType": "uint256",
          "name": "",
          "type": "uint256"
        }
      ],
      "name": "transactions",
      "outputs": [
        {
          "internalType": "address",
          "name": "to",
          "type": "address"
        },
        {
          "internalType": "uint256",
          "name": "value",
          "type": "uint256"
        },
        {
          "internalType": "bytes",
          "name": "data",
          "type": "bytes"
        },
        {
          "internalType": "bool",
          "name": "executed",
          "type": "bool"
        },
        {
          "internalType": "uint256",
          "name": "numConfirmations",
          "type": "uint256"
        }
      ],
      "stateMutability": "view",
      "type": "function"
    },
    {
      "stateMutability": "payable",
      "type": "receive"
    }
  ],
  "bytecode": "0x60806040523480156200001157600080fd5b50604051620022263803806200222683398181016040528101906200003791906200055d565b60008251116200007e576040517f08c379a0000000000000000000000000000000000000000000000000000000008152600401620000759062000624565b60405180910390fd5b6000811180156200008f5750815181105b620000d1576040517f08c379a0000000000000000000000000000000000000000000000000000000008152600401620000c89062000696565b60405180910390fd5b60005b8251811015620003245760016000848381518110620000f857620000f7620006b8565b5b602002602001015173ffffffffffffffffffffffffffffffffffffffff1673ffffffffffffffffffffffffffffffffffffffff16815260200190815260200160002060009054906101000a900460ff16156200018b576040517f08c379a0000000000000000000000000000000000000000000000000000000008152600401620001829062000737565b60405180910390fd5b600073ffffffffffffffffffffffffffffffffffffffff16838281518110620001b957620001b8620006b8565b5b602002602001015173ffffffffffffffffffffffffffffffffffffffff16036200021a576040517f08c379a00000000000000000000000000000000000000000000000000000000081526004016200021190620007a9565b60405180910390fd5b6001806000858481518110620002355762000234620006b8565b5b602002602001015173ffffffffffffffffffffffffffffffffffffffff1673ffffffffffffffffffffffffffffffffffffffff16815260200190815260200160002060006101000a81548160ff0219169083151502179055506000838281518110620002a657620002a5620006b8565b5b60200260200101519080600181540180825580915050600190039060005260206000200160009091909190916101000a81548173ffffffffffffffffffffffffffffffffffffffff021916908373ffffffffffffffffffffffffffffffffffffffff16021790555080806200031b90620007fa565b915050620000d4565b5080600281905550505062000847565b6000604051905090565b600080fd5b600080fd5b600080fd5b6000601f19601f8301169050919050565b7f4e487b7100000000000000000000000000000000000000000000000000000000600052604160045260246000fd5b62000398826200034d565b810181811067ffffffffffffffff82111715620003ba57620003b96200035e565b5b80604052505050565b6000620003cf62000334565b9050620003dd82826200038d565b919050565b600067ffffffffffffffff8211156200040057620003ff6200035e565b5b602082029050602081019050919050565b600080fd5b600073ffffffffffffffffffffffffffffffffffffffff82169050919050565b6000620004438262000416565b9050919050565b620004558162000436565b81146200046157600080fd5b50565b60008151905062000475816200044a565b92915050565b6000620004926200048c84620003e2565b620003c3565b90508083825260208201905060208402830185811115620004b857620004b762000411565b5b835b81811015620004e55780620004d0888262000464565b845260208401935050602081019050620004ba565b5050509392505050565b600082601f83011262000507576200050662000348565b5b8151620005198482602086016200047b565b91505092915050565b6000819050919050565b620005378162000522565b81146200054357600080fd5b50565b60008151905062000557816200052c565b92915050565b600080604083850312156200057757620005766200033e565b5b600083015167ffffffffffffffff81111562000598576200059762000343565b5b620005a685828601620004ef565b9250506020620005b98582860162000546565b9150509250929050565b600082825260208201905092915050565b7f6f776e6572732072657175697265640000000000000000000000000000000000600082015250565b60006200060c600f83620005c3565b91506200061982620005d4565b602082019050919050565b600060208201905081810360008301526200063f81620005fd565b9050919050565b7f496e76616c69642072657175657374656420636f6e666f726d6174696f6e7300600082015250565b60006200067e601f83620005c3565b91506200068b8262000646565b602082019050919050565b60006020820190508181036000830152620006b1816200066f565b9050919050565b7f4e487b7100000000000000000000000000000000000000000000000000000000600052603260045260246000fd5b7f6164647265737320616c72656164792065786973747300000000000000000000600082015250565b60006200071f601683620005c3565b91506200072c82620006e7565b602082019050919050565b60006020820190508181036000830152620007528162000710565b9050919050565b7f696e76616c696420616464726573730000000000000000000000000000000000600082015250565b600062000791600f83620005c3565b91506200079e8262000759565b602082019050919050565b60006020820190508181036000830152620007c48162000782565b9050919050565b7f4e487b7100000000000000000000000000000000000000000000000000000000600052601160045260246000fd5b6000620008078262000522565b91507fffffffffffffffffffffffffffffffffffffffffffffffffffffffffffffffff82036200083c576200083b620007cb565b5b600182019050919050565b6119cf80620008576000396000f3fe6080604052600436106100a05760003560e01c806380f59a651161006457806380f59a65146101a35780639ace38c2146101e05780639b6a34d314610221578063a0e67e2b1461024c578063c01a8c8414610277578063c6427474146102a0576100a7565b8063025e7c27146100ac5780632e7700f0146100e95780632f54bf6e1461011457806354b5fe8014610151578063735631ad1461017a576100a7565b366100a757005b600080fd5b3480156100b857600080fd5b506100d360048036038101906100ce9190610dde565b6102c9565b6040516100e09190610e4c565b60405180910390f35b3480156100f557600080fd5b506100fe610308565b60405161010b9190610e76565b60405180910390f35b34801561012057600080fd5b5061013b60048036038101906101369190610ebd565b610315565b6040516101489190610f05565b60405180910390f35b34801561015d57600080fd5b5061017860048036038101906101739190610dde565b610335565b005b34801561018657600080fd5b506101a1600480360381019061019c9190610dde565b6105b7565b005b3480156101af57600080fd5b506101ca60048036038101906101c59190610f20565b61084d565b6040516101d79190610f05565b60405180910390f35b3480156101ec57600080fd5b5061020760048036038101906102029190610dde565b61087c565b604051610218959493929190610ff0565b60405180910390f35b34801561022d57600080fd5b50610236610977565b6040516102439190610e76565b60405180910390f35b34801561025857600080fd5b5061026161097d565b60405161026e9190611108565b60405180910390f35b34801561028357600080fd5b5061029e60048036038101906102999190610dde565b610a0b565b005b3480156102ac57600080fd5b506102c760048036038101906102c2919061125f565b610c04565b005b600081815481106102d957600080fd5b906000526020600020016000915054906101000a900473ffffffffffffffffffffffffffffffffffffffff1681565b6000600380549050905090565b60016020528060005260406000206000915054906101000a900460ff1681565b600160003373ffffffffffffffffffffffffffffffffffffffff1673ffffffffffffffffffffffffffffffffffffffff16815260200190815260200160002060009054906101000a900460ff166103c1576040517f08c379a00000000000000000000000000000000000000000000000000000000081526004016103b89061132b565b60405180910390fd5b806003805490508110610409576040517f08c379a000000000000000000000000000000000000000000000000000000000815260040161040090611397565b60405180910390fd5b816003818154811061041e5761041d6113b7565b5b906000526020600020906005020160030160009054906101000a900460ff161561047d576040517f08c379a000000000000000000000000000000000000000000000000000000000815260040161047490611432565b60405180910390fd5b600060038481548110610493576104926113b7565b5b90600052602060002090600502019050600254816004015410156104ec576040517f08c379a00000000000000000000000000000000000000000000000000000000081526004016104e3906114c4565b60405180910390fd5b60018160030160006101000a81548160ff02191690831515021790555060008160000160009054906101000a900473ffffffffffffffffffffffffffffffffffffffff1673ffffffffffffffffffffffffffffffffffffffff1682600101548360020160405161055c91906115e7565b60006040518083038185875af1925050503d8060008114610599576040519150601f19603f3d011682016040523d82523d6000602084013e61059e565b606091505b50509050806105b0576105af6115fe565b5b5050505050565b8060038054905081106105ff576040517f08c379a00000000000000000000000000000000000000000000000000000000081526004016105f690611397565b60405180910390fd5b600160003373ffffffffffffffffffffffffffffffffffffffff1673ffffffffffffffffffffffffffffffffffffffff16815260200190815260200160002060009054906101000a900460ff1661068b576040517f08c379a00000000000000000000000000000000000000000000000000000000081526004016106829061132b565b60405180910390fd5b81600381815481106106a05761069f6113b7565b5b906000526020600020906005020160030160009054906101000a900460ff16156106ff576040517f08c379a00000000000000000000000000000000000000000000000000000000081526004016106f690611432565b60405180910390fd5b600060038481548110610715576107146113b7565b5b906000526020600020906005020190506004600085815260200190815260200160002060003373ffffffffffffffffffffffffffffffffffffffff1673ffffffffffffffffffffffffffffffffffffffff16815260200190815260200160002060009054906101000a900460ff166107c2576040517f08c379a00000000000000000000000000000000000000000000000000000000081526004016107b990611679565b60405180910390fd5b60018160040160008282546107d791906116c8565b9250508190555060006004600086815260200190815260200160002060003373ffffffffffffffffffffffffffffffffffffffff1673ffffffffffffffffffffffffffffffffffffffff16815260200190815260200160002060006101000a81548160ff02191690831515021790555050505050565b60046020528160005260406000206020528060005260406000206000915091509054906101000a900460ff1681565b6003818154811061088c57600080fd5b90600052602060002090600502016000915090508060000160009054906101000a900473ffffffffffffffffffffffffffffffffffffffff16908060010154908060020180546108db90611513565b80601f016020809104026020016040519081016040528092919081815260200182805461090790611513565b80156109545780601f1061092957610100808354040283529160200191610954565b820191906000526020600020905b81548152906001019060200180831161093757829003601f168201915b5050505050908060030160009054906101000a900460ff16908060040154905085565b60025481565b60606000805480602002602001604051908101604052809291908181526020018280548015610a0157602002820191906000526020600020905b8160009054906101000a900473ffffffffffffffffffffffffffffffffffffffff1673ffffffffffffffffffffffffffffffffffffffff16815260200190600101908083116109b7575b5050505050905090565b806003805490508110610a53576040517f08c379a0000000000000000000000000000000000000000000000000000000008152600401610a4a90611397565b60405180910390fd5b600160003373ffffffffffffffffffffffffffffffffffffffff1673ffffffffffffffffffffffffffffffffffffffff16815260200190815260200160002060009054906101000a900460ff16610adf576040517f08c379a0000000000000000000000000000000000000000000000000000000008152600401610ad69061132b565b60405180910390fd5b8160038181548110610af457610af36113b7565b5b906000526020600020906005020160030160009054906101000a900460ff1615610b53576040517f08c379a0000000000000000000000000000000000000000000000000000000008152600401610b4a90611432565b60405180910390fd5b600060038481548110610b6957610b686113b7565b5b906000526020600020906005020190506001816004016000828254610b8e91906116fc565b9250508190555060016004600086815260200190815260200160002060003373ffffffffffffffffffffffffffffffffffffffff1673ffffffffffffffffffffffffffffffffffffffff16815260200190815260200160002060006101000a81548160ff02191690831515021790555050505050565b600160003373ffffffffffffffffffffffffffffffffffffffff1673ffffffffffffffffffffffffffffffffffffffff16815260200190815260200160002060009054906101000a900460ff16610c90576040517f08c379a0000000000000000000000000000000000000000000000000000000008152600401610c879061132b565b60405180910390fd5b60036040518060a001604052808573ffffffffffffffffffffffffffffffffffffffff1681526020018481526020018381526020016000151581526020016000815250908060018154018082558091505060019003906000526020600020906005020160009091909190915060008201518160000160006101000a81548173ffffffffffffffffffffffffffffffffffffffff021916908373ffffffffffffffffffffffffffffffffffffffff160217905550602082015181600101556040820151816002019081610d6291906118c7565b5060608201518160030160006101000a81548160ff021916908315150217905550608082015181600401555050505050565b6000604051905090565b600080fd5b600080fd5b6000819050919050565b610dbb81610da8565b8114610dc657600080fd5b50565b600081359050610dd881610db2565b92915050565b600060208284031215610df457610df3610d9e565b5b6000610e0284828501610dc9565b91505092915050565b600073ffffffffffffffffffffffffffffffffffffffff82169050919050565b6000610e3682610e0b565b9050919050565b610e4681610e2b565b82525050565b6000602082019050610e616000830184610e3d565b92915050565b610e7081610da8565b82525050565b6000602082019050610e8b6000830184610e67565b92915050565b610e9a81610e2b565b8114610ea557600080fd5b50565b600081359050610eb781610e91565b92915050565b600060208284031215610ed357610ed2610d9e565b5b6000610ee184828501610ea8565b91505092915050565b60008115159050919050565b610eff81610eea565b82525050565b6000602082019050610f1a6000830184610ef6565b92915050565b60008060408385031215610f3757610f36610d9e565b5b6000610f4585828601610dc9565b9250506020610f5685828601610ea8565b9150509250929050565b600081519050919050565b600082825260208201905092915050565b60005b83811015610f9a578082015181840152602081019050610f7f565b60008484015250505050565b6000601f19601f8301169050919050565b6000610fc282610f60565b610fcc8185610f6b565b9350610fdc818560208601610f7c565b610fe581610fa6565b840191505092915050565b600060a0820190506110056000830188610e3d565b6110126020830187610e67565b81810360408301526110248186610fb7565b90506110336060830185610ef6565b6110406080830184610e67565b9695505050505050565b600081519050919050565b600082825260208201905092915050565b6000819050602082019050919050565b61107f81610e2b565b82525050565b60006110918383611076565b60208301905092915050565b6000602082019050919050565b60006110b58261104a565b6110bf8185611055565b93506110ca83611066565b8060005b838110156110fb5781516110e28882611085565b97506110ed8361109d565b9250506001810190506110ce565b5085935050505092915050565b6000602082019050818103600083015261112281846110aa565b905092915050565b600080fd5b600080fd5b7f4e487b7100000000000000000000000000000000000000000000000000000000600052604160045260246000fd5b61116c82610fa6565b810181811067ffffffffffffffff8211171561118b5761118a611134565b5b80604052505050565b600061119e610d94565b90506111aa8282611163565b919050565b600067ffffffffffffffff8211156111ca576111c9611134565b5b6111d382610fa6565b9050602081019050919050565b82818337600083830152505050565b60006112026111fd846111af565b611194565b90508281526020810184848401111561121e5761121d61112f565b5b6112298482856111e0565b509392505050565b600082601f8301126112465761124561112a565b5b81356112568482602086016111ef565b91505092915050565b60008060006060848603121561127857611277610d9e565b5b600061128686828701610ea8565b935050602061129786828701610dc9565b925050604084013567ffffffffffffffff8111156112b8576112b7610da3565b5b6112c486828701611231565b9150509250925092565b600082825260208201905092915050565b7f4e6f74206f776e65720000000000000000000000000000000000000000000000600082015250565b60006113156009836112ce565b9150611320826112df565b602082019050919050565b6000602082019050818103600083015261134481611308565b9050919050565b7f747820646f6573206e6f74206578697374000000000000000000000000000000600082015250565b60006113816011836112ce565b915061138c8261134b565b602082019050919050565b600060208201905081810360008301526113b081611374565b9050919050565b7f4e487b7100000000000000000000000000000000000000000000000000000000600052603260045260246000fd5b7f616c726561647920657865637574656400000000000000000000000000000000600082015250565b600061141c6010836112ce565b9150611427826113e6565b602082019050919050565b6000602082019050818103600083015261144b8161140f565b9050919050565b7f63616e6e6f7420657865637574652c20646f6e74206d6565742072657175697260008201527f656d656e74000000000000000000000000000000000000000000000000000000602082015250565b60006114ae6025836112ce565b91506114b982611452565b604082019050919050565b600060208201905081810360008301526114dd816114a1565b9050919050565b7f4e487b7100000000000000000000000000000000000000000000000000000000600052602260045260246000fd5b6000600282049050600182168061152b57607f821691505b60208210810361153e5761153d6114e4565b5b50919050565b600081905092915050565b60008190508160005260206000209050919050565b6000815461157181611513565b61157b8186611544565b9450600182166000811461159657600181146115ab576115de565b60ff19831686528115158202860193506115de565b6115b48561154f565b60005b838110156115d6578154818901526001820191506020810190506115b7565b838801955050505b50505092915050565b60006115f38284611564565b915081905092915050565b7f4e487b7100000000000000000000000000000000000000000000000000000000600052600160045260246000fd5b7f7478206e6f7420636f6e6669726d656400000000000000000000000000000000600082015250565b60006116636010836112ce565b915061166e8261162d565b602082019050919050565b6000602082019050818103600083015261169281611656565b9050919050565b7f4e487b7100000000000000000000000000000000000000000000000000000000600052601160045260246000fd5b60006116d382610da8565b91506116de83610da8565b92508282039050818111156116f6576116f5611699565b5b92915050565b600061170782610da8565b915061171283610da8565b925082820190508082111561172a57611729611699565b5b92915050565b60006020601f8301049050919050565b600082821b905092915050565b60006008830261177d7fffffffffffffffffffffffffffffffffffffffffffffffffffffffffffffffff82611740565b6117878683611740565b95508019841693508086168417925050509392505050565b6000819050919050565b60006117c46117bf6117ba84610da8565b61179f565b610da8565b9050919050565b6000819050919050565b6117de836117a9565b6117f26117ea826117cb565b84845461174d565b825550505050565b600090565b6118076117fa565b6118128184846117d5565b505050565b5b818110156118365761182b6000826117ff565b600181019050611818565b5050565b601f82111561187b5761184c8161154f565b61185584611730565b81016020851015611864578190505b61187861187085611730565b830182611817565b50505b505050565b600082821c905092915050565b600061189e60001984600802611880565b1980831691505092915050565b60006118b7838361188d565b9150826002028217905092915050565b6118d082610f60565b67ffffffffffffffff8111156118e9576118e8611134565b5b6118f38254611513565b6118fe82828561183a565b600060209050601f831160018114611931576000841561191f578287015190505b61192985826118ab565b865550611991565b601f19841661193f8661154f565b60005b8281101561196757848901518255600182019150602085019450602081019050611942565b868310156119845784890151611980601f89168261188d565b8355505b6001600288020188555050505b50505050505056fea264697066735822122055e356a9cf5e120ba8c60a8506ec611cac1556181a9572780a6665a7d693e93564736f6c63430008110033",
  "linkReferences": {},
  "deployedLinkReferences": {}
}