{
  "_format": "hh-sol-artifact-1",
  "contractName": "Constants",
  "sourceName": "contracts/05Constants.sol",
  "abi": [
    {
      "inputs": [],
      "name": "MY_ADDR",
      "outputs": [
        {
          "internalType": "address",
          "name": "",
          "type": "address"
        }
      ],
      "stateMutability": "view",
      "type": "function"
    }
  ],
  "bytecode": "0x608060405234801561001057600080fd5b5060eb8061001f6000396000f3fe6080604052348015600f57600080fd5b506004361060285760003560e01c80632db78e5914602d575b600080fd5b60336047565b604051603e9190609c565b60405180910390f35b73777788889999aaaabbbbccccddddeeeeffffcccc81565b600073ffffffffffffffffffffffffffffffffffffffff82169050919050565b6000608882605f565b9050919050565b609681607f565b82525050565b600060208201905060af6000830184608f565b9291505056fea2646970667358221220160b646271bb27c32a0e0619b4136517a20376fab1be3f34bf4e4cf8951e131464736f6c63430008110033",
  "linkReferences": {},
  "deployedLinkReferences": {}
}