{
  "_format": "hh-sol-artifact-1",
  "contractName": "IfElse",
  "sourceName": "contracts/10IfElse.sol",
  "abi": [
    {
      "inputs": [
        {
          "internalType": "uint8",
          "name": "x",
          "type": "uint8"
        }
      ],
      "name": "foo",
      "outputs": [
        {
          "internalType": "uint8",
          "name": "",
          "type": "uint8"
        }
      ],
      "stateMutability": "pure",
      "type": "function"
    },
    {
      "inputs": [
        {
          "internalType": "uint8",
          "name": "_x",
          "type": "uint8"
        }
      ],
      "name": "ternary",
      "outputs": [
        {
          "internalType": "uint8",
          "name": "",
          "type": "uint8"
        }
      ],
      "stateMutability": "pure",
      "type": "function"
    }
  ],
  "bytecode": "0x608060405234801561001057600080fd5b506101cc806100206000396000f3fe608060405234801561001057600080fd5b50600436106100365760003560e01c806311602fb31461003b578063aa0aa1a91461006b575b600080fd5b6100556004803603810190610050919061013f565b61009b565b604051610062919061017b565b60405180910390f35b6100856004803603810190610080919061013f565b6100e2565b604051610092919061017b565b60405180910390f35b6000600a8260ff1610156100b257600090506100dd565b600a8260ff16101580156100ca575060148260ff1611155b156100d857600190506100dd565b600290505b919050565b6000600a8260ff1610156100f75760006100fa565b60015b9050919050565b600080fd5b600060ff82169050919050565b61011c81610106565b811461012757600080fd5b50565b60008135905061013981610113565b92915050565b60006020828403121561015557610154610101565b5b60006101638482850161012a565b91505092915050565b61017581610106565b82525050565b6000602082019050610190600083018461016c565b9291505056fea26469706673582212204e7b6f399f31415d090971410a0e2ddc4e9f2833a12e562977fc25c7949c055664736f6c63430008110033",
  "linkReferences": {},
  "deployedLinkReferences": {}
}