{
  "_format": "hh-sol-artifact-1",
  "contractName": "Immutable",
  "sourceName": "contracts/06Immutable.sol",
  "abi": [
    {
      "inputs": [
        {
          "internalType": "uint8",
          "name": "Inputvalue",
          "type": "uint8"
        }
      ],
      "stateMutability": "nonpayable",
      "type": "constructor"
    },
    {
      "inputs": [],
      "name": "MY_ADDRESS",
      "outputs": [
        {
          "internalType": "address",
          "name": "",
          "type": "address"
        }
      ],
      "stateMutability": "view",
      "type": "function"
    },
    {
      "inputs": [],
      "name": "value",
      "outputs": [
        {
          "internalType": "uint8",
          "name": "",
          "type": "uint8"
        }
      ],
      "stateMutability": "view",
      "type": "function"
    }
  ],
  "bytecode": "0x60c060405234801561001057600080fd5b50604051610290380380610290833981810160405281019061003291906100b8565b8060ff1660a08160ff16815250503373ffffffffffffffffffffffffffffffffffffffff1660808173ffffffffffffffffffffffffffffffffffffffff1681525050506100e5565b600080fd5b600060ff82169050919050565b6100958161007f565b81146100a057600080fd5b50565b6000815190506100b28161008c565b92915050565b6000602082840312156100ce576100cd61007a565b5b60006100dc848285016100a3565b91505092915050565b60805160a0516101886101086000396000609d01526000607901526101886000f3fe608060405234801561001057600080fd5b50600436106100365760003560e01c80633a756cec1461003b5780633fa4f24514610059575b600080fd5b610043610077565b6040516100509190610100565b60405180910390f35b61006161009b565b60405161006e9190610137565b60405180910390f35b7f000000000000000000000000000000000000000000000000000000000000000081565b7f000000000000000000000000000000000000000000000000000000000000000081565b600073ffffffffffffffffffffffffffffffffffffffff82169050919050565b60006100ea826100bf565b9050919050565b6100fa816100df565b82525050565b600060208201905061011560008301846100f1565b92915050565b600060ff82169050919050565b6101318161011b565b82525050565b600060208201905061014c6000830184610128565b9291505056fea2646970667358221220ec962ac9f27ebf81442e0c02d45f1b767e42ce43ee35725ecbd8fc0cfa83d34164736f6c63430008110033",
  "linkReferences": {},
  "deployedLinkReferences": {}
}