{
  "_format": "hh-sol-artifact-1",
  "contractName": "Variables",
  "sourceName": "contracts/04Variables.sol",
  "abi": [
    {
      "inputs": [],
      "name": "doSomething",
      "outputs": [],
      "stateMutability": "nonpayable",
      "type": "function"
    },
    {
      "inputs": [],
      "name": "text",
      "outputs": [
        {
          "internalType": "string",
          "name": "",
          "type": "string"
        }
      ],
      "stateMutability": "view",
      "type": "function"
    }
  ],
  "bytecode": "0x60806040526040518060400160405280600b81526020017f48656c6c6f20576f726c640000000000000000000000000000000000000000008152506000908161004891906102ab565b5034801561005557600080fd5b5061037d565b600081519050919050565b7f4e487b7100000000000000000000000000000000000000000000000000000000600052604160045260246000fd5b7f4e487b7100000000000000000000000000000000000000000000000000000000600052602260045260246000fd5b600060028204905060018216806100dc57607f821691505b6020821081036100ef576100ee610095565b5b50919050565b60008190508160005260206000209050919050565b60006020601f8301049050919050565b600082821b905092915050565b6000600883026101577fffffffffffffffffffffffffffffffffffffffffffffffffffffffffffffffff8261011a565b610161868361011a565b95508019841693508086168417925050509392505050565b6000819050919050565b6000819050919050565b60006101a86101a361019e84610179565b610183565b610179565b9050919050565b6000819050919050565b6101c28361018d565b6101d66101ce826101af565b848454610127565b825550505050565b600090565b6101eb6101de565b6101f68184846101b9565b505050565b5b8181101561021a5761020f6000826101e3565b6001810190506101fc565b5050565b601f82111561025f57610230816100f5565b6102398461010a565b81016020851015610248578190505b61025c6102548561010a565b8301826101fb565b50505b505050565b600082821c905092915050565b600061028260001984600802610264565b1980831691505092915050565b600061029b8383610271565b9150826002028217905092915050565b6102b48261005b565b67ffffffffffffffff8111156102cd576102cc610066565b5b6102d782546100c4565b6102e282828561021e565b600060209050601f8311600181146103155760008415610303578287015190505b61030d858261028f565b865550610375565b601f198416610323866100f5565b60005b8281101561034b57848901518255600182019150602085019450602081019050610326565b868310156103685784890151610364601f891682610271565b8355505b6001600288020188555050505b505050505050565b61024e8061038c6000396000f3fe608060405234801561001057600080fd5b50600436106100365760003560e01c80631f1bd6921461003b5780638269267914610059575b600080fd5b610043610063565b6040516100509190610196565b60405180910390f35b6100616100f1565b005b60008054610070906101e7565b80601f016020809104026020016040519081016040528092919081815260200182805461009c906101e7565b80156100e95780601f106100be576101008083540402835291602001916100e9565b820191906000526020600020905b8154815290600101906020018083116100cc57829003601f168201915b505050505081565b60006002905060004290506000339050505050565b600081519050919050565b600082825260208201905092915050565b60005b83811015610140578082015181840152602081019050610125565b60008484015250505050565b6000601f19601f8301169050919050565b600061016882610106565b6101728185610111565b9350610182818560208601610122565b61018b8161014c565b840191505092915050565b600060208201905081810360008301526101b0818461015d565b905092915050565b7f4e487b7100000000000000000000000000000000000000000000000000000000600052602260045260246000fd5b600060028204905060018216806101ff57607f821691505b602082108103610212576102116101b8565b5b5091905056fea26469706673582212203de06cc5bac6cb2a4b91bd806c51d58e5af559e307c5d1cf972cdd721a3191f364736f6c63430008110033",
  "linkReferences": {},
  "deployedLinkReferences": {}
}