{
  "_format": "hh-sol-artifact-1",
  "contractName": "CounterApp",
  "sourceName": "contracts/02Counter.sol",
  "abi": [
    {
      "inputs": [],
      "stateMutability": "nonpayable",
      "type": "constructor"
    },
    {
      "inputs": [],
      "name": "count",
      "outputs": [
        {
          "internalType": "uint256",
          "name": "",
          "type": "uint256"
        }
      ],
      "stateMutability": "view",
      "type": "function"
    },
    {
      "inputs": [],
      "name": "dec",
      "outputs": [
        {
          "internalType": "uint256",
          "name": "",
          "type": "uint256"
        }
      ],
      "stateMutability": "nonpayable",
      "type": "function"
    },
    {
      "inputs": [],
      "name": "get",
      "outputs": [
        {
          "internalType": "uint256",
          "name": "",
          "type": "uint256"
        }
      ],
      "stateMutability": "view",
      "type": "function"
    },
    {
      "inputs": [],
      "name": "inc",
      "outputs": [
        {
          "internalType": "uint256",
          "name": "",
          "type": "uint256"
        }
      ],
      "stateMutability": "nonpayable",
      "type": "function"
    }
  ],
  "bytecode": "0x608060405234801561001057600080fd5b5060008081905550610217806100276000396000f3fe608060405234801561001057600080fd5b506004361061004c5760003560e01c806306661abd14610051578063371303c01461006f5780636d4ce63c1461008d578063b3bcfa82146100ab575b600080fd5b6100596100c9565b604051610066919061012f565b60405180910390f35b6100776100cf565b604051610084919061012f565b60405180910390f35b6100956100ee565b6040516100a2919061012f565b60405180910390f35b6100b36100f7565b6040516100c0919061012f565b60405180910390f35b60005481565b600060016000808282546100e39190610179565b925050819055905090565b60008054905090565b6000600160008082825461010b91906101ad565b925050819055905090565b6000819050919050565b61012981610116565b82525050565b60006020820190506101446000830184610120565b92915050565b7f4e487b7100000000000000000000000000000000000000000000000000000000600052601160045260246000fd5b600061018482610116565b915061018f83610116565b92508282019050808211156101a7576101a661014a565b5b92915050565b60006101b882610116565b91506101c383610116565b92508282039050818111156101db576101da61014a565b5b9291505056fea2646970667358221220caeab8981b6e031b7397010b527746830789caf406b525400128ff44bbda443264736f6c63430008110033",
  "linkReferences": {},
  "deployedLinkReferences": {}
}