{
  "_format": "hh-sol-artifact-1",
  "contractName": "MerkelTreeCreate",
  "sourceName": "contracts/MerkelTreeCreate.sol",
  "abi": [
    {
      "inputs": [],
      "stateMutability": "nonpayable",
      "type": "constructor"
    },
    {
      "inputs": [],
      "name": "getRoot",
      "outputs": [
        {
          "internalType": "bytes32",
          "name": "",
          "type": "bytes32"
        }
      ],
      "stateMutability": "view",
      "type": "function"
    },
    {
      "inputs": [
        {
          "internalType": "uint256",
          "name": "",
          "type": "uint256"
        }
      ],
      "name": "hashes",
      "outputs": [
        {
          "internalType": "bytes32",
          "name": "",
          "type": "bytes32"
        }
      ],
      "stateMutability": "view",
      "type": "function"
    }
  ],
  "bytecode": "0x608060405234801561001057600080fd5b50600060405180608001604052806040518060400160405280600c81526020017f616c696365202d3e20626f62000000000000000000000000000000000000000081525081526020016040518060400160405280600b81526020017f626f62202d3e206461766500000000000000000000000000000000000000000081525081526020016040518060400160405280600e81526020017f6361726f6c202d3e20616c69636500000000000000000000000000000000000081525081526020016040518060400160405280600b81526020017f64617665202d3e20626f62000000000000000000000000000000000000000000815250815250905060005b600481101561018f57600082826004811061012b5761012a6102a6565b5b60200201516040516020016101409190610346565b604051602081830303815290604052805190602001209080600181540180825580915050600190039060005260206000200160009091909190915055808061018790610396565b91505061010d565b5060006004905060005b600082111561029e5760005b6001836101b291906103de565b81101561027b5760008083836101c89190610412565b815481106101d9576101d86102a6565b5b90600052602060002001546000846001856101f49190610412565b6101fe9190610412565b8154811061020f5761020e6102a6565b5b906000526020600020015460405160200161022b929190610471565b6040516020818303038152906040528051906020012090806001815401808255809150506001900390600052602060002001600090919091909150556002816102749190610412565b90506101a5565b5081816102889190610412565b905060028261029791906104cc565b9150610199565b5050506104fd565b7f4e487b7100000000000000000000000000000000000000000000000000000000600052603260045260246000fd5b600081519050919050565b600081905092915050565b60005b838110156103095780820151818401526020810190506102ee565b60008484015250505050565b6000610320826102d5565b61032a81856102e0565b935061033a8185602086016102eb565b80840191505092915050565b60006103528284610315565b915081905092915050565b7f4e487b7100000000000000000000000000000000000000000000000000000000600052601160045260246000fd5b6000819050919050565b60006103a18261038c565b91507fffffffffffffffffffffffffffffffffffffffffffffffffffffffffffffffff82036103d3576103d261035d565b5b600182019050919050565b60006103e98261038c565b91506103f48361038c565b925082820390508181111561040c5761040b61035d565b5b92915050565b600061041d8261038c565b91506104288361038c565b92508282019050808211156104405761043f61035d565b5b92915050565b6000819050919050565b6000819050919050565b61046b61046682610446565b610450565b82525050565b600061047d828561045a565b60208201915061048d828461045a565b6020820191508190509392505050565b7f4e487b7100000000000000000000000000000000000000000000000000000000600052601260045260246000fd5b60006104d78261038c565b91506104e28361038c565b9250826104f2576104f161049d565b5b828204905092915050565b6102478061050c6000396000f3fe608060405234801561001057600080fd5b50600436106100365760003560e01c8063501895ae1461003b5780635ca1e1651461006b575b600080fd5b6100556004803603810190610050919061011e565b610089565b6040516100629190610164565b60405180910390f35b6100736100ad565b6040516100809190610164565b60405180910390f35b6000818154811061009957600080fd5b906000526020600020016000915090505481565b60008060016000805490506100c291906101ae565b815481106100d3576100d26101e2565b5b9060005260206000200154905090565b600080fd5b6000819050919050565b6100fb816100e8565b811461010657600080fd5b50565b600081359050610118816100f2565b92915050565b600060208284031215610134576101336100e3565b5b600061014284828501610109565b91505092915050565b6000819050919050565b61015e8161014b565b82525050565b60006020820190506101796000830184610155565b92915050565b7f4e487b7100000000000000000000000000000000000000000000000000000000600052601160045260246000fd5b60006101b9826100e8565b91506101c4836100e8565b92508282039050818111156101dc576101db61017f565b5b92915050565b7f4e487b7100000000000000000000000000000000000000000000000000000000600052603260045260246000fdfea2646970667358221220d9b6fd792a89dc2120e986f3fac5cf83576ad7e9e132f7d58a04d66788f1367864736f6c63430008110033",
  "linkReferences": {},
  "deployedLinkReferences": {}
}