{
  "_format": "hh-sol-artifact-1",
  "contractName": "EthWallet",
  "sourceName": "contracts/EthSend.sol",
  "abi": [
    {
      "inputs": [],
      "stateMutability": "nonpayable",
      "type": "constructor"
    },
    {
      "inputs": [],
      "name": "getAddressContract",
      "outputs": [
        {
          "internalType": "address",
          "name": "",
          "type": "address"
        }
      ],
      "stateMutability": "view",
      "type": "function"
    },
    {
      "inputs": [],
      "name": "getBalance",
      "outputs": [
        {
          "internalType": "uint256",
          "name": "",
          "type": "uint256"
        }
      ],
      "stateMutability": "view",
      "type": "function"
    },
    {
      "inputs": [],
      "name": "owner",
      "outputs": [
        {
          "internalType": "address payable",
          "name": "",
          "type": "address"
        }
      ],
      "stateMutability": "view",
      "type": "function"
    },
    {
      "inputs": [
        {
          "internalType": "uint256",
          "name": "_amount",
          "type": "uint256"
        }
      ],
      "name": "withdraw",
      "outputs": [],
      "stateMutability": "nonpayable",
      "type": "function"
    },
    {
      "stateMutability": "payable",
      "type": "receive"
    }
  ],
  "bytecode": "0x608060405234801561001057600080fd5b50336000806101000a81548173ffffffffffffffffffffffffffffffffffffffff021916908373ffffffffffffffffffffffffffffffffffffffff16021790555061055b806100606000396000f3fe6080604052600436106100435760003560e01c806312065fe01461004f5780632e1a7d4d1461007a5780638da5cb5b146100a3578063f8aff5f4146100ce5761004a565b3661004a57005b600080fd5b34801561005b57600080fd5b506100646100f9565b60405161007191906102b6565b60405180910390f35b34801561008657600080fd5b506100a1600480360381019061009c9190610302565b610101565b005b3480156100af57600080fd5b506100b8610271565b6040516100c59190610370565b60405180910390f35b3480156100da57600080fd5b506100e3610295565b6040516100f091906103ac565b60405180910390f35b600047905090565b60008054906101000a900473ffffffffffffffffffffffffffffffffffffffff1673ffffffffffffffffffffffffffffffffffffffff163373ffffffffffffffffffffffffffffffffffffffff161461018f576040517f08c379a000000000000000000000000000000000000000000000000000000000815260040161018690610424565b60405180910390fd5b478111156101d2576040517f08c379a00000000000000000000000000000000000000000000000000000000081526004016101c990610490565b60405180910390fd5b60008060009054906101000a900473ffffffffffffffffffffffffffffffffffffffff1673ffffffffffffffffffffffffffffffffffffffff1682604051610219906104e1565b60006040518083038185875af1925050503d8060008114610256576040519150601f19603f3d011682016040523d82523d6000602084013e61025b565b606091505b505090508061026d5761026c6104f6565b5b5050565b60008054906101000a900473ffffffffffffffffffffffffffffffffffffffff1681565b600030905090565b6000819050919050565b6102b08161029d565b82525050565b60006020820190506102cb60008301846102a7565b92915050565b600080fd5b6102df8161029d565b81146102ea57600080fd5b50565b6000813590506102fc816102d6565b92915050565b600060208284031215610318576103176102d1565b5b6000610326848285016102ed565b91505092915050565b600073ffffffffffffffffffffffffffffffffffffffff82169050919050565b600061035a8261032f565b9050919050565b61036a8161034f565b82525050565b60006020820190506103856000830184610361565b92915050565b60006103968261032f565b9050919050565b6103a68161038b565b82525050565b60006020820190506103c1600083018461039d565b92915050565b600082825260208201905092915050565b7f596f7520646f6e742068617665206f776e65722070726576696c616765000000600082015250565b600061040e601d836103c7565b9150610419826103d8565b602082019050919050565b6000602082019050818103600083015261043d81610401565b9050919050565b7f496e73756666696369656e742066756e64730000000000000000000000000000600082015250565b600061047a6012836103c7565b915061048582610444565b602082019050919050565b600060208201905081810360008301526104a98161046d565b9050919050565b600081905092915050565b50565b60006104cb6000836104b0565b91506104d6826104bb565b600082019050919050565b60006104ec826104be565b9150819050919050565b7f4e487b7100000000000000000000000000000000000000000000000000000000600052600160045260246000fdfea26469706673582212203ab31c3cc78da0f76ef59e6ca33f121e6801e74cbdfe7ca1dcab2428c42580c264736f6c63430008110033",
  "linkReferences": {},
  "deployedLinkReferences": {}
}