{
  "_format": "hh-sol-artifact-1",
  "contractName": "Mapping",
  "sourceName": "contracts/12Mapping.sol",
  "abi": [
    {
      "inputs": [],
      "stateMutability": "nonpayable",
      "type": "constructor"
    },
    {
      "inputs": [
        {
          "internalType": "address",
          "name": "_address",
          "type": "address"
        }
      ],
      "name": "get",
      "outputs": [
        {
          "internalType": "uint8",
          "name": "",
          "type": "uint8"
        }
      ],
      "stateMutability": "view",
      "type": "function"
    },
    {
      "inputs": [
        {
          "internalType": "address",
          "name": "_address",
          "type": "address"
        }
      ],
      "name": "remove",
      "outputs": [],
      "stateMutability": "nonpayable",
      "type": "function"
    },
    {
      "inputs": [
        {
          "internalType": "address",
          "name": "_addr",
          "type": "address"
        },
        {
          "internalType": "uint8",
          "name": "tokens",
          "type": "uint8"
        }
      ],
      "name": "set",
      "outputs": [],
      "stateMutability": "nonpayable",
      "type": "function"
    }
  ],
  "bytecode": "0x608060405234801561001057600080fd5b50600a6000803373ffffffffffffffffffffffffffffffffffffffff1673ffffffffffffffffffffffffffffffffffffffff16815260200190815260200160002060006101000a81548160ff021916908360ff160217905550610318806100786000396000f3fe608060405234801561001057600080fd5b50600436106100415760003560e01c806329092d0e1461004657806343f9acff14610062578063c2bc2efc1461007e575b600080fd5b610060600480360381019061005b9190610212565b6100ae565b005b61007c60048036038101906100779190610278565b6100ff565b005b61009860048036038101906100939190610212565b61015a565b6040516100a591906102c7565b60405180910390f35b6000808273ffffffffffffffffffffffffffffffffffffffff1673ffffffffffffffffffffffffffffffffffffffff16815260200190815260200160002060006101000a81549060ff021916905550565b806000808473ffffffffffffffffffffffffffffffffffffffff1673ffffffffffffffffffffffffffffffffffffffff16815260200190815260200160002060006101000a81548160ff021916908360ff1602179055505050565b60008060008373ffffffffffffffffffffffffffffffffffffffff1673ffffffffffffffffffffffffffffffffffffffff16815260200190815260200160002060009054906101000a900460ff169050919050565b600080fd5b600073ffffffffffffffffffffffffffffffffffffffff82169050919050565b60006101df826101b4565b9050919050565b6101ef816101d4565b81146101fa57600080fd5b50565b60008135905061020c816101e6565b92915050565b600060208284031215610228576102276101af565b5b6000610236848285016101fd565b91505092915050565b600060ff82169050919050565b6102558161023f565b811461026057600080fd5b50565b6000813590506102728161024c565b92915050565b6000806040838503121561028f5761028e6101af565b5b600061029d858286016101fd565b92505060206102ae85828601610263565b9150509250929050565b6102c18161023f565b82525050565b60006020820190506102dc60008301846102b8565b9291505056fea264697066735822122089e74ad83c23aaa99272c8527a76e30e6c1c997360ab33361926c7739f7db2d364736f6c63430008110033",
  "linkReferences": {},
  "deployedLinkReferences": {}
}