{
  "_format": "hh-sol-artifact-1",
  "contractName": "MultiSigNew",
  "sourceName": "contracts/MultiSigWalletNew.sol",
  "abi": [
    {
      "inputs": [
        {
          "internalType": "address[]",
          "name": "_owners",
          "type": "address[]"
        },
        {
          "internalType": "uint8",
          "name": "_numberOfApproval",
          "type": "uint8"
        }
      ],
      "stateMutability": "nonpayable",
      "type": "constructor"
    },
    {
      "anonymous": false,
      "inputs": [
        {
          "indexed": false,
          "internalType": "string",
          "name": "message",
          "type": "string"
        },
        {
          "indexed": false,
          "internalType": "uint256",
          "name": "value",
          "type": "uint256"
        }
      ],
      "name": "Log",
      "type": "event"
    },
    {
      "inputs": [
        {
          "internalType": "uint256",
          "name": "_transactionId",
          "type": "uint256"
        }
      ],
      "name": "approveTrx",
      "outputs": [],
      "stateMutability": "nonpayable",
      "type": "function"
    },
    {
      "inputs": [
        {
          "internalType": "uint256",
          "name": "_trxId",
          "type": "uint256"
        }
      ],
      "name": "executeTrx",
      "outputs": [],
      "stateMutability": "nonpayable",
      "type": "function"
    },
    {
      "inputs": [],
      "name": "getInfo",
      "outputs": [
        {
          "internalType": "uint256",
          "name": "",
          "type": "uint256"
        }
      ],
      "stateMutability": "view",
      "type": "function"
    },
    {
      "inputs": [],
      "name": "getTransactionCount",
      "outputs": [
        {
          "internalType": "uint256",
          "name": "",
          "type": "uint256"
        }
      ],
      "stateMutability": "view",
      "type": "function"
    },
    {
      "inputs": [],
      "name": "numberOfCheckers",
      "outputs": [
        {
          "internalType": "uint8",
          "name": "",
          "type": "uint8"
        }
      ],
      "stateMutability": "view",
      "type": "function"
    },
    {
      "inputs": [
        {
          "internalType": "uint256",
          "name": "",
          "type": "uint256"
        }
      ],
      "name": "owner",
      "outputs": [
        {
          "internalType": "address",
          "name": "",
          "type": "address"
        }
      ],
      "stateMutability": "view",
      "type": "function"
    },
    {
      "inputs": [
        {
          "internalType": "uint256",
          "name": "_transactionId",
          "type": "uint256"
        }
      ],
      "name": "rejectTrx",
      "outputs": [],
      "stateMutability": "nonpayable",
      "type": "function"
    },
    {
      "inputs": [
        {
          "internalType": "address payable",
          "name": "_to",
          "type": "address"
        },
        {
          "internalType": "uint256",
          "name": "_amount",
          "type": "uint256"
        }
      ],
      "name": "submitTrx",
      "outputs": [],
      "stateMutability": "nonpayable",
      "type": "function"
    },
    {
      "inputs": [
        {
          "internalType": "uint256",
          "name": "",
          "type": "uint256"
        },
        {
          "internalType": "address",
          "name": "",
          "type": "address"
        }
      ],
      "name": "transactionApprovalList",
      "outputs": [
        {
          "internalType": "bool",
          "name": "",
          "type": "bool"
        }
      ],
      "stateMutability": "view",
      "type": "function"
    },
    {
      "inputs": [
        {
          "internalType": "uint256",
          "name": "",
          "type": "uint256"
        }
      ],
      "name": "transactions",
      "outputs": [
        {
          "internalType": "address",
          "name": "to",
          "type": "address"
        },
        {
          "internalType": "uint256",
          "name": "noOfApprovals",
          "type": "uint256"
        },
        {
          "internalType": "bool",
          "name": "isApproved",
          "type": "bool"
        },
        {
          "internalType": "uint256",
          "name": "amount",
          "type": "uint256"
        }
      ],
      "stateMutability": "view",
      "type": "function"
    },
    {
      "stateMutability": "payable",
      "type": "receive"
    }
  ],
  "bytecode": "0x60806040523480156200001157600080fd5b50604051620017133803806200171383398181016040528101906200003791906200052c565b8060ff168251101562000081576040517f08c379a00000000000000000000000000000000000000000000000000000000081526004016200007890620005f3565b60405180910390fd5b60005b8251811015620002dc576001151560026000858481518110620000ac57620000ab62000615565b5b602002602001015173ffffffffffffffffffffffffffffffffffffffff1673ffffffffffffffffffffffffffffffffffffffff16815260200190815260200160002060009054906101000a900460ff161515151462000142576040517f08c379a0000000000000000000000000000000000000000000000000000000008152600401620001399062000694565b60405180910390fd5b600073ffffffffffffffffffffffffffffffffffffffff1683828151811062000170576200016f62000615565b5b602002602001015173ffffffffffffffffffffffffffffffffffffffff1603620001d1576040517f08c379a0000000000000000000000000000000000000000000000000000000008152600401620001c89062000706565b60405180910390fd5b600160026000858481518110620001ed57620001ec62000615565b5b602002602001015173ffffffffffffffffffffffffffffffffffffffff1673ffffffffffffffffffffffffffffffffffffffff16815260200190815260200160002060006101000a81548160ff02191690831515021790555060008382815181106200025e576200025d62000615565b5b60200260200101519080600181540180825580915050600190039060005260206000200160009091909190916101000a81548173ffffffffffffffffffffffffffffffffffffffff021916908373ffffffffffffffffffffffffffffffffffffffff1602179055508080620002d39062000761565b91505062000084565b5080600160006101000a81548160ff021916908360ff1602179055505050620007ae565b6000604051905090565b600080fd5b600080fd5b600080fd5b6000601f19601f8301169050919050565b7f4e487b7100000000000000000000000000000000000000000000000000000000600052604160045260246000fd5b620003648262000319565b810181811067ffffffffffffffff821117156200038657620003856200032a565b5b80604052505050565b60006200039b62000300565b9050620003a9828262000359565b919050565b600067ffffffffffffffff821115620003cc57620003cb6200032a565b5b602082029050602081019050919050565b600080fd5b600073ffffffffffffffffffffffffffffffffffffffff82169050919050565b60006200040f82620003e2565b9050919050565b620004218162000402565b81146200042d57600080fd5b50565b600081519050620004418162000416565b92915050565b60006200045e6200045884620003ae565b6200038f565b90508083825260208201905060208402830185811115620004845762000483620003dd565b5b835b81811015620004b157806200049c888262000430565b84526020840193505060208101905062000486565b5050509392505050565b600082601f830112620004d357620004d262000314565b5b8151620004e584826020860162000447565b91505092915050565b600060ff82169050919050565b6200050681620004ee565b81146200051257600080fd5b50565b6000815190506200052681620004fb565b92915050565b600080604083850312156200054657620005456200030a565b5b600083015167ffffffffffffffff8111156200056757620005666200030f565b5b6200057585828601620004bb565b9250506020620005888582860162000515565b9150509250929050565b600082825260208201905092915050565b7f696e20636f7272656374206e756d626572206f6620617070726f76616c730000600082015250565b6000620005db601e8362000592565b9150620005e882620005a3565b602082019050919050565b600060208201905081810360008301526200060e81620005cc565b9050919050565b7f4e487b7100000000000000000000000000000000000000000000000000000000600052603260045260246000fd5b7f616c72656164792061646465642074686973206f776e65720000000000000000600082015250565b60006200067c60188362000592565b9150620006898262000644565b602082019050919050565b60006020820190508181036000830152620006af816200066d565b9050919050565b7f696e636f7272656374206164647265737320666f726d61740000000000000000600082015250565b6000620006ee60188362000592565b9150620006fb82620006b6565b602082019050919050565b600060208201905081810360008301526200072181620006df565b9050919050565b7f4e487b7100000000000000000000000000000000000000000000000000000000600052601160045260246000fd5b6000819050919050565b60006200076e8262000757565b91507fffffffffffffffffffffffffffffffffffffffffffffffffffffffffffffffff8203620007a357620007a262000728565b5b600182019050919050565b610f5580620007be6000396000f3fe6080604052600436106100955760003560e01c8063a123c33e11610059578063a123c33e1461018b578063b9cf02bb146101c8578063bfe503f3146101f1578063dfc7c95b1461021a578063e9422385146102575761009c565b8063040111cd146100a15780632e7700f0146100ca57806355caf9a1146100f55780635a9b0b89146101205780639ace38c21461014b5761009c565b3661009c57005b600080fd5b3480156100ad57600080fd5b506100c860048036038101906100c39190610a4b565b610280565b005b3480156100d657600080fd5b506100df61043e565b6040516100ec9190610a9a565b60405180910390f35b34801561010157600080fd5b5061010a61044b565b6040516101179190610ad1565b60405180910390f35b34801561012c57600080fd5b5061013561045e565b6040516101429190610a9a565b60405180910390f35b34801561015757600080fd5b50610172600480360381019061016d9190610aec565b610478565b6040516101829493929190610b55565b60405180910390f35b34801561019757600080fd5b506101b260048036038101906101ad9190610aec565b6104e5565b6040516101bf9190610b9a565b60405180910390f35b3480156101d457600080fd5b506101ef60048036038101906101ea9190610aec565b610524565b005b3480156101fd57600080fd5b5061021860048036038101906102139190610aec565b6106c2565b005b34801561022657600080fd5b50610241600480360381019061023c9190610be1565b610815565b60405161024e9190610c21565b60405180910390f35b34801561026357600080fd5b5061027e60048036038101906102799190610aec565b610844565b005b60011515600260003373ffffffffffffffffffffffffffffffffffffffff1673ffffffffffffffffffffffffffffffffffffffff16815260200190815260200160002060009054906101000a900460ff161515146102dd57600080fd5b600360405180608001604052808473ffffffffffffffffffffffffffffffffffffffff1681526020016001815260200160001515815260200183815250908060018154018082558091505060019003906000526020600020906004020160009091909190915060008201518160000160006101000a81548173ffffffffffffffffffffffffffffffffffffffff021916908373ffffffffffffffffffffffffffffffffffffffff1602179055506020820151816001015560408201518160020160006101000a81548160ff02191690831515021790555060608201518160030155505060016004600060016003805490506103d89190610c6b565b815260200190815260200160002060003373ffffffffffffffffffffffffffffffffffffffff1673ffffffffffffffffffffffffffffffffffffffff16815260200190815260200160002060006101000a81548160ff0219169083151502179055505050565b6000600380549050905090565b600160009054906101000a900460ff1681565b6000600160009054906101000a900460ff1660ff16905090565b6003818154811061048857600080fd5b90600052602060002090600402016000915090508060000160009054906101000a900473ffffffffffffffffffffffffffffffffffffffff16908060010154908060020160009054906101000a900460ff16908060030154905084565b600081815481106104f557600080fd5b906000526020600020016000915054906101000a900473ffffffffffffffffffffffffffffffffffffffff1681565b60006003828154811061053a57610539610c9f565b5b90600052602060002090600402019050600160009054906101000a900460ff1660ff16816001015410156105a3576040517f08c379a000000000000000000000000000000000000000000000000000000000815260040161059a90610d2b565b60405180910390fd5b600160009054906101000a900460ff1660ff16816001015410156105c657600080fd5b60008160000160009054906101000a900473ffffffffffffffffffffffffffffffffffffffff1673ffffffffffffffffffffffffffffffffffffffff16826003015460405161061490610d7c565b60006040518083038185875af1925050503d8060008114610651576040519150601f19603f3d011682016040523d82523d6000602084013e610656565b606091505b505090508061066857610667610d91565b5b60018260020160006101000a81548160ff0219169083151502179055507fdd970dd9b5bfe707922155b058a407655cb18288b807e2216442bca8ad83d6b560156040516106b59190610e51565b60405180910390a1505050565b600015156004600083815260200190815260200160002060003373ffffffffffffffffffffffffffffffffffffffff1673ffffffffffffffffffffffffffffffffffffffff16815260200190815260200160002060009054906101000a900460ff16151514610766576040517f08c379a000000000000000000000000000000000000000000000000000000000815260040161075d90610ecb565b60405180910390fd5b60006003828154811061077c5761077b610c9f565b5b9060005260206000209060040201905060018160010160008282546107a19190610eeb565b9250508190555060016004600084815260200190815260200160002060003373ffffffffffffffffffffffffffffffffffffffff1673ffffffffffffffffffffffffffffffffffffffff16815260200190815260200160002060006101000a81548160ff0219169083151502179055505050565b60046020528160005260406000206020528060005260406000206000915091509054906101000a900460ff1681565b600015156004600083815260200190815260200160002060003373ffffffffffffffffffffffffffffffffffffffff1673ffffffffffffffffffffffffffffffffffffffff16815260200190815260200160002060009054906101000a900460ff161515146108e8576040517f08c379a00000000000000000000000000000000000000000000000000000000081526004016108df90610ecb565b60405180910390fd5b6000600382815481106108fe576108fd610c9f565b5b90600052602060002090600402019050600081600101541161092857600081600101819055610944565b600181600101600082825461093d9190610c6b565b9250508190555b5060016004600084815260200190815260200160002060003373ffffffffffffffffffffffffffffffffffffffff1673ffffffffffffffffffffffffffffffffffffffff16815260200190815260200160002060006101000a81548160ff0219169083151502179055505050565b600080fd5b600073ffffffffffffffffffffffffffffffffffffffff82169050919050565b60006109e2826109b7565b9050919050565b6109f2816109d7565b81146109fd57600080fd5b50565b600081359050610a0f816109e9565b92915050565b6000819050919050565b610a2881610a15565b8114610a3357600080fd5b50565b600081359050610a4581610a1f565b92915050565b60008060408385031215610a6257610a616109b2565b5b6000610a7085828601610a00565b9250506020610a8185828601610a36565b9150509250929050565b610a9481610a15565b82525050565b6000602082019050610aaf6000830184610a8b565b92915050565b600060ff82169050919050565b610acb81610ab5565b82525050565b6000602082019050610ae66000830184610ac2565b92915050565b600060208284031215610b0257610b016109b2565b5b6000610b1084828501610a36565b91505092915050565b6000610b24826109b7565b9050919050565b610b3481610b19565b82525050565b60008115159050919050565b610b4f81610b3a565b82525050565b6000608082019050610b6a6000830187610b2b565b610b776020830186610a8b565b610b846040830185610b46565b610b916060830184610a8b565b95945050505050565b6000602082019050610baf6000830184610b2b565b92915050565b610bbe81610b19565b8114610bc957600080fd5b50565b600081359050610bdb81610bb5565b92915050565b60008060408385031215610bf857610bf76109b2565b5b6000610c0685828601610a36565b9250506020610c1785828601610bcc565b9150509250929050565b6000602082019050610c366000830184610b46565b92915050565b7f4e487b7100000000000000000000000000000000000000000000000000000000600052601160045260246000fd5b6000610c7682610a15565b9150610c8183610a15565b9250828203905081811115610c9957610c98610c3c565b5b92915050565b7f4e487b7100000000000000000000000000000000000000000000000000000000600052603260045260246000fd5b600082825260208201905092915050565b7f6661696c656420746f206d656574206372697465726961000000000000000000600082015250565b6000610d15601783610cce565b9150610d2082610cdf565b602082019050919050565b60006020820190508181036000830152610d4481610d08565b9050919050565b600081905092915050565b50565b6000610d66600083610d4b565b9150610d7182610d56565b600082019050919050565b6000610d8782610d59565b9150819050919050565b7f4e487b7100000000000000000000000000000000000000000000000000000000600052600160045260246000fd5b7f73756365737366756c6c792065786563757465643a0000000000000000000000600082015250565b6000610df6601583610cce565b9150610e0182610dc0565b602082019050919050565b6000819050919050565b6000819050919050565b6000610e3b610e36610e3184610e0c565b610e16565b610a15565b9050919050565b610e4b81610e20565b82525050565b60006040820190508181036000830152610e6a81610de9565b9050610e796020830184610e42565b92915050565b7f616c726561647920617070726f7665642f72656a656374656400000000000000600082015250565b6000610eb5601983610cce565b9150610ec082610e7f565b602082019050919050565b60006020820190508181036000830152610ee481610ea8565b9050919050565b6000610ef682610a15565b9150610f0183610a15565b9250828201905080821115610f1957610f18610c3c565b5b9291505056fea26469706673582212205a410a767494152763d073db066157731d1d16f0274a5e335a50fb3fb1ebf3bf64736f6c63430008110033",
  "linkReferences": {},
  "deployedLinkReferences": {}
}