{
  "_format": "hh-sol-artifact-1",
  "contractName": "Loop",
  "sourceName": "contracts/11forWhile.sol",
  "abi": [
    {
      "inputs": [],
      "name": "loop",
      "outputs": [],
      "stateMutability": "nonpayable",
      "type": "function"
    }
  ],
  "bytecode": "0x608060405234801561001057600080fd5b50610116806100206000396000f3fe6080604052348015600f57600080fd5b506004361060285760003560e01c8063a92100cb14602d575b600080fd5b60336035565b005b60005b600a811015606157600381031560515760088103156061575b8080605a90609d565b9150506038565b50565b7f4e487b7100000000000000000000000000000000000000000000000000000000600052601160045260246000fd5b6000819050919050565b600060a6826093565b91507fffffffffffffffffffffffffffffffffffffffffffffffffffffffffffffffff820360d55760d46064565b5b60018201905091905056fea2646970667358221220676ba54c3b2e049ee0d38052da1fc876439c515313508518b439a77f8bfc299f64736f6c63430008110033",
  "linkReferences": {},
  "deployedLinkReferences": {}
}