{
  "_format": "hh-sol-artifact-1",
  "contractName": "Counter",
  "sourceName": "contracts/Counter.sol",
  "abi": [
    {
      "inputs": [],
      "name": "dec",
      "outputs": [],
      "stateMutability": "nonpayable",
      "type": "function"
    },
    {
      "inputs": [],
      "name": "get",
      "outputs": [
        {
          "internalType": "uint256",
          "name": "",
          "type": "uint256"
        }
      ],
      "stateMutability": "view",
      "type": "function"
    },
    {
      "inputs": [],
      "name": "inc",
      "outputs": [],
      "stateMutability": "nonpayable",
      "type": "function"
    }
  ],
  "bytecode": "0x608060405234801561001057600080fd5b506101b8806100206000396000f3fe608060405234801561001057600080fd5b50600436106100415760003560e01c8063371303c0146100465780636d4ce63c14610050578063b3bcfa821461006e575b600080fd5b61004e610078565b005b610058610093565b60405161006591906100d0565b60405180910390f35b61007661009c565b005b600160008082825461008a919061011a565b92505081905550565b60008054905090565b60016000808282546100ae919061014e565b92505081905550565b6000819050919050565b6100ca816100b7565b82525050565b60006020820190506100e560008301846100c1565b92915050565b7f4e487b7100000000000000000000000000000000000000000000000000000000600052601160045260246000fd5b6000610125826100b7565b9150610130836100b7565b9250828201905080821115610148576101476100eb565b5b92915050565b6000610159826100b7565b9150610164836100b7565b925082820390508181111561017c5761017b6100eb565b5b9291505056fea2646970667358221220ecb15b327e33352b253818b94f48cbff26b051d61b602f0927c81b6dbab06af764736f6c63430008110033",
  "linkReferences": {},
  "deployedLinkReferences": {}
}